:020000040000FA
:1000000001288316031328308100831600308600F0
:10001000870083120030860087003F3087004F3012
:10002000860081010030A6001E30A5000108A5024F
:10003000A1001E30A400A106031D24284F30870014
:100040003F308600810112280A30A200A502031861
:100050002C283F2086002E28A60A242822082507BF
:10006000342087004B20122882073F3406345B344B
:100070004F3466346D347C3407347F346F34260853
:1000800082073F3406345B344F3466346D347C343D
:1000900007347F346F340A30A3006430A000FA3094
:1000A000A7000000A70B5128A00B4F28A30B4D2839
:0200B000080046
:0400B20000340034E2
:02400E00F1308F
:02401000FF3F70
:00000001FF
